{
  "_format": "hh-sol-artifact-1",
  "contractName": "InsuranceClaims",
  "sourceName": "contracts/InsuranceClaims.sol",
  "abi": [
    {
      "inputs": [
        {
          "internalType": "address",
          "name": "admin",
          "type": "address"
        }
      ],
      "stateMutability": "nonpayable",
      "type": "constructor"
    },
    {
      "anonymous": false,
      "inputs": [
        {
          "indexed": true,
          "internalType": "uint256",
          "name": "id",
          "type": "uint256"
        },
        {
          "indexed": true,
          "internalType": "address",
          "name": "approver",
          "type": "address"
        }
      ],
      "name": "ClaimApproved",
      "type": "event"
    },
    {
      "anonymous": false,
      "inputs": [
        {
          "indexed": true,
          "internalType": "uint256",
          "name": "id",
          "type": "uint256"
        },
        {
          "indexed": true,
          "internalType": "address",
          "name": "claimant",
          "type": "address"
        },
        {
          "indexed": false,
          "internalType": "string",
          "name": "fhirHash",
          "type": "string"
        },
        {
          "indexed": false,
          "internalType": "uint256",
          "name": "amount",
          "type": "uint256"
        }
      ],
      "name": "ClaimSubmitted",
      "type": "event"
    },
    {
      "anonymous": false,
      "inputs": [
        {
          "indexed": true,
          "internalType": "bytes32",
          "name": "role",
          "type": "bytes32"
        },
        {
          "indexed": true,
          "internalType": "bytes32",
          "name": "previousAdminRole",
          "type": "bytes32"
        },
        {
          "indexed": true,
          "internalType": "bytes32",
          "name": "newAdminRole",
          "type": "bytes32"
        }
      ],
      "name": "RoleAdminChanged",
      "type": "event"
    },
    {
      "anonymous": false,
      "inputs": [
        {
          "indexed": true,
          "internalType": "bytes32",
          "name": "role",
          "type": "bytes32"
        },
        {
          "indexed": true,
          "internalType": "address",
          "name": "account",
          "type": "address"
        },
        {
          "indexed": true,
          "internalType": "address",
          "name": "sender",
          "type": "address"
        }
      ],
      "name": "RoleGranted",
      "type": "event"
    },
    {
      "anonymous": false,
      "inputs": [
        {
          "indexed": true,
          "internalType": "bytes32",
          "name": "role",
          "type": "bytes32"
        },
        {
          "indexed": true,
          "internalType": "address",
          "name": "account",
          "type": "address"
        },
        {
          "indexed": true,
          "internalType": "address",
          "name": "sender",
          "type": "address"
        }
      ],
      "name": "RoleRevoked",
      "type": "event"
    },
    {
      "inputs": [],
      "name": "DEFAULT_ADMIN_ROLE",
      "outputs": [
        {
          "internalType": "bytes32",
          "name": "",
          "type": "bytes32"
        }
      ],
      "stateMutability": "view",
      "type": "function"
    },
    {
      "inputs": [],
      "name": "INSURER_ROLE",
      "outputs": [
        {
          "internalType": "bytes32",
          "name": "",
          "type": "bytes32"
        }
      ],
      "stateMutability": "view",
      "type": "function"
    },
    {
      "inputs": [
        {
          "internalType": "uint256",
          "name": "id",
          "type": "uint256"
        }
      ],
      "name": "approveClaim",
      "outputs": [],
      "stateMutability": "nonpayable",
      "type": "function"
    },
    {
      "inputs": [],
      "name": "claimCount",
      "outputs": [
        {
          "internalType": "uint256",
          "name": "",
          "type": "uint256"
        }
      ],
      "stateMutability": "view",
      "type": "function"
    },
    {
      "inputs": [
        {
          "internalType": "uint256",
          "name": "",
          "type": "uint256"
        }
      ],
      "name": "claims",
      "outputs": [
        {
          "internalType": "uint256",
          "name": "id",
          "type": "uint256"
        },
        {
          "internalType": "address",
          "name": "claimant",
          "type": "address"
        },
        {
          "internalType": "string",
          "name": "fhirHash",
          "type": "string"
        },
        {
          "internalType": "uint256",
          "name": "amount",
          "type": "uint256"
        },
        {
          "internalType": "bool",
          "name": "approved",
          "type": "bool"
        },
        {
          "internalType": "uint256",
          "name": "timestamp",
          "type": "uint256"
        }
      ],
      "stateMutability": "view",
      "type": "function"
    },
    {
      "inputs": [
        {
          "internalType": "address",
          "name": "",
          "type": "address"
        },
        {
          "internalType": "uint256",
          "name": "",
          "type": "uint256"
        }
      ],
      "name": "claimsByAddress",
      "outputs": [
        {
          "internalType": "uint256",
          "name": "",
          "type": "uint256"
        }
      ],
      "stateMutability": "view",
      "type": "function"
    },
    {
      "inputs": [
        {
          "internalType": "address",
          "name": "who",
          "type": "address"
        }
      ],
      "name": "getClaimsOf",
      "outputs": [
        {
          "internalType": "uint256[]",
          "name": "",
          "type": "uint256[]"
        }
      ],
      "stateMutability": "view",
      "type": "function"
    },
    {
      "inputs": [
        {
          "internalType": "bytes32",
          "name": "role",
          "type": "bytes32"
        }
      ],
      "name": "getRoleAdmin",
      "outputs": [
        {
          "internalType": "bytes32",
          "name": "",
          "type": "bytes32"
        }
      ],
      "stateMutability": "view",
      "type": "function"
    },
    {
      "inputs": [
        {
          "internalType": "bytes32",
          "name": "role",
          "type": "bytes32"
        },
        {
          "internalType": "address",
          "name": "account",
          "type": "address"
        }
      ],
      "name": "grantRole",
      "outputs": [],
      "stateMutability": "nonpayable",
      "type": "function"
    },
    {
      "inputs": [
        {
          "internalType": "bytes32",
          "name": "role",
          "type": "bytes32"
        },
        {
          "internalType": "address",
          "name": "account",
          "type": "address"
        }
      ],
      "name": "hasRole",
      "outputs": [
        {
          "internalType": "bool",
          "name": "",
          "type": "bool"
        }
      ],
      "stateMutability": "view",
      "type": "function"
    },
    {
      "inputs": [
        {
          "internalType": "bytes32",
          "name": "role",
          "type": "bytes32"
        },
        {
          "internalType": "address",
          "name": "account",
          "type": "address"
        }
      ],
      "name": "renounceRole",
      "outputs": [],
      "stateMutability": "nonpayable",
      "type": "function"
    },
    {
      "inputs": [
        {
          "internalType": "bytes32",
          "name": "role",
          "type": "bytes32"
        },
        {
          "internalType": "address",
          "name": "account",
          "type": "address"
        }
      ],
      "name": "revokeRole",
      "outputs": [],
      "stateMutability": "nonpayable",
      "type": "function"
    },
    {
      "inputs": [
        {
          "internalType": "string",
          "name": "fhirHash",
          "type": "string"
        },
        {
          "internalType": "uint256",
          "name": "amount",
          "type": "uint256"
        }
      ],
      "name": "submitClaim",
      "outputs": [
        {
          "internalType": "uint256",
          "name": "",
          "type": "uint256"
        }
      ],
      "stateMutability": "nonpayable",
      "type": "function"
    },
    {
      "inputs": [
        {
          "internalType": "bytes4",
          "name": "interfaceId",
          "type": "bytes4"
        }
      ],
      "name": "supportsInterface",
      "outputs": [
        {
          "internalType": "bool",
          "name": "",
          "type": "bool"
        }
      ],
      "stateMutability": "view",
      "type": "function"
    }
  ],
  "bytecode": "0x60806040523480156200001157600080fd5b5060405162001f7638038062001f76833981810160405281019062000037919062000270565b6200004c6000801b826200008d60201b60201c565b6200007e7feb0a07781e3ee843c0d85f7381c2e1a1e1a6ea86bcdcd944ef649d46e7dcd972826200008d60201b60201c565b600060018190555050620002a2565b6200009f8282620000a360201b60201c565b5050565b620000b582826200019460201b60201c565b6200019057600160008084815260200190815260200160002060000160008373ffffffffffffffffffffffffffffffffffffffff1673ffffffffffffffffffffffffffffffffffffffff16815260200190815260200160002060006101000a81548160ff02191690831515021790555062000135620001fe60201b60201c565b73ffffffffffffffffffffffffffffffffffffffff168173ffffffffffffffffffffffffffffffffffffffff16837f2f8788117e7eff1d82e926ec794901d17c78024a50270940304540a733656f0d60405160405180910390a45b5050565b600080600084815260200190815260200160002060000160008373ffffffffffffffffffffffffffffffffffffffff1673ffffffffffffffffffffffffffffffffffffffff16815260200190815260200160002060009054906101000a900460ff16905092915050565b600033905090565b600080fd5b600073ffffffffffffffffffffffffffffffffffffffff82169050919050565b600062000238826200020b565b9050919050565b6200024a816200022b565b81146200025657600080fd5b50565b6000815190506200026a816200023f565b92915050565b60006020828403121562000289576200028862000206565b5b6000620002998482850162000259565b91505092915050565b611cc480620002b26000396000f3fe608060405234801561001057600080fd5b50600436106100ea5760003560e01c80638da4d3c91161008c578063a217fddf11610066578063a217fddf1461026f578063a888c2cd1461028d578063d547741f146102c2578063f41f0ad5146102de576100ea565b80638da4d3c9146101f157806391d148541461020f578063924694ca1461023f576100ea565b80632f2ff15d116100c85780632f2ff15d1461016d57806336568abe146101895780633b23ed20146101a557806346e30135146101d5576100ea565b806301ffc9a7146100ef578063056c99891461011f578063248a9ca31461013d575b600080fd5b61010960048036038101906101049190610f7d565b61030e565b6040516101169190610fc5565b60405180910390f35b610127610388565b6040516101349190610ff9565b60405180910390f35b61015760048036038101906101529190611040565b6103ac565b6040516101649190610ff9565b60405180910390f35b610187600480360381019061018291906110cb565b6103cb565b005b6101a3600480360381019061019e91906110cb565b6103ec565b005b6101bf60048036038101906101ba9190611287565b61046f565b6040516101cc91906112f2565b60405180910390f35b6101ef60048036038101906101ea919061130d565b61064b565b005b6101f961078b565b60405161020691906112f2565b60405180910390f35b610229600480360381019061022491906110cb565b610791565b6040516102369190610fc5565b60405180910390f35b6102596004803603810190610254919061133a565b6107fb565b6040516102669190611425565b60405180910390f35b610277610892565b6040516102849190610ff9565b60405180910390f35b6102a760048036038101906102a2919061130d565b610899565b6040516102b9969594939291906114d5565b60405180910390f35b6102dc60048036038101906102d791906110cb565b61098a565b005b6102f860048036038101906102f3919061153d565b6109ab565b60405161030591906112f2565b60405180910390f35b60007f7965db0b000000000000000000000000000000000000000000000000000000007bffffffffffffffffffffffffffffffffffffffffffffffffffffffff1916827bffffffffffffffffffffffffffffffffffffffffffffffffffffffff191614806103815750610380826109dc565b5b9050919050565b7feb0a07781e3ee843c0d85f7381c2e1a1e1a6ea86bcdcd944ef649d46e7dcd97281565b6000806000838152602001908152602001600020600101549050919050565b6103d4826103ac565b6103dd81610a46565b6103e78383610a5a565b505050565b6103f4610b3a565b73ffffffffffffffffffffffffffffffffffffffff168173ffffffffffffffffffffffffffffffffffffffff1614610461576040517f08c379a0000000000000000000000000000000000000000000000000000000008152600401610458906115ef565b60405180910390fd5b61046b8282610b42565b5050565b60006001806000828254610483919061163e565b925050819055506040518060c0016040528060015481526020013373ffffffffffffffffffffffffffffffffffffffff168152602001848152602001838152602001600015158152602001428152506002600060015481526020019081526020016000206000820151816000015560208201518160010160006101000a81548173ffffffffffffffffffffffffffffffffffffffff021916908373ffffffffffffffffffffffffffffffffffffffff160217905550604082015181600201908161054d919061187e565b506060820151816003015560808201518160040160006101000a81548160ff02191690831515021790555060a08201518160050155905050600360003373ffffffffffffffffffffffffffffffffffffffff1673ffffffffffffffffffffffffffffffffffffffff16815260200190815260200160002060015490806001815401808255809150506001900390600052602060002001600090919091909150553373ffffffffffffffffffffffffffffffffffffffff166001547f7b93424ad215fbe0de3c89292c089e94a85bb1eb533c34f15af1a07cdc659d038585604051610638929190611950565b60405180910390a3600154905092915050565b7feb0a07781e3ee843c0d85f7381c2e1a1e1a6ea86bcdcd944ef649d46e7dcd97261067581610a46565b600060026000848152602001908152602001600020905060008160000154036106d3576040517f08c379a00000000000000000000000000000000000000000000000000000000081526004016106ca906119cc565b60405180910390fd5b8060040160009054906101000a900460ff1615610725576040517f08c379a000000000000000000000000000000000000000000000000000000000815260040161071c90611a38565b60405180910390fd5b60018160040160006101000a81548160ff0219169083151502179055503373ffffffffffffffffffffffffffffffffffffffff16837f968c07757c229f315190fbce1a55070276e8f962073e641fc61140bece87cc9760405160405180910390a3505050565b60015481565b600080600084815260200190815260200160002060000160008373ffffffffffffffffffffffffffffffffffffffff1673ffffffffffffffffffffffffffffffffffffffff16815260200190815260200160002060009054906101000a900460ff16905092915050565b6060600360008373ffffffffffffffffffffffffffffffffffffffff1673ffffffffffffffffffffffffffffffffffffffff16815260200190815260200160002080548060200260200160405190810160405280929190818152602001828054801561088657602002820191906000526020600020905b815481526020019060010190808311610872575b50505050509050919050565b6000801b81565b60026020528060005260406000206000915090508060000154908060010160009054906101000a900473ffffffffffffffffffffffffffffffffffffffff16908060020180546108e8906116a1565b80601f0160208091040260200160405190810160405280929190818152602001828054610914906116a1565b80156109615780601f1061093657610100808354040283529160200191610961565b820191906000526020600020905b81548152906001019060200180831161094457829003601f168201915b5050505050908060030154908060040160009054906101000a900460ff16908060050154905086565b610993826103ac565b61099c81610a46565b6109a68383610b42565b505050565b600360205281600052604060002081815481106109c757600080fd5b90600052602060002001600091509150505481565b60007f01ffc9a7000000000000000000000000000000000000000000000000000000007bffffffffffffffffffffffffffffffffffffffffffffffffffffffff1916827bffffffffffffffffffffffffffffffffffffffffffffffffffffffff1916149050919050565b610a5781610a52610b3a565b610c23565b50565b610a648282610791565b610b3657600160008084815260200190815260200160002060000160008373ffffffffffffffffffffffffffffffffffffffff1673ffffffffffffffffffffffffffffffffffffffff16815260200190815260200160002060006101000a81548160ff021916908315150217905550610adb610b3a565b73ffffffffffffffffffffffffffffffffffffffff168173ffffffffffffffffffffffffffffffffffffffff16837f2f8788117e7eff1d82e926ec794901d17c78024a50270940304540a733656f0d60405160405180910390a45b5050565b600033905090565b610b4c8282610791565b15610c1f57600080600084815260200190815260200160002060000160008373ffffffffffffffffffffffffffffffffffffffff1673ffffffffffffffffffffffffffffffffffffffff16815260200190815260200160002060006101000a81548160ff021916908315150217905550610bc4610b3a565b73ffffffffffffffffffffffffffffffffffffffff168173ffffffffffffffffffffffffffffffffffffffff16837ff6391f5c32d9c69d2a47ea670b442974b53935d1edc7fd64eb21e047a839171b60405160405180910390a45b5050565b610c2d8282610791565b610ca457610c3a81610ca8565b610c488360001c6020610cd5565b604051602001610c59929190611b2c565b6040516020818303038152906040526040517f08c379a0000000000000000000000000000000000000000000000000000000008152600401610c9b9190611b66565b60405180910390fd5b5050565b6060610cce8273ffffffffffffffffffffffffffffffffffffffff16601460ff16610cd5565b9050919050565b606060006002836002610ce89190611b88565b610cf2919061163e565b67ffffffffffffffff811115610d0b57610d0a611126565b5b6040519080825280601f01601f191660200182016040528015610d3d5781602001600182028036833780820191505090505b5090507f300000000000000000000000000000000000000000000000000000000000000081600081518110610d7557610d74611bca565b5b60200101907effffffffffffffffffffffffffffffffffffffffffffffffffffffffffffff1916908160001a9053507f780000000000000000000000000000000000000000000000000000000000000081600181518110610dd957610dd8611bca565b5b60200101907effffffffffffffffffffffffffffffffffffffffffffffffffffffffffffff1916908160001a90535060006001846002610e199190611b88565b610e23919061163e565b90505b6001811115610ec3577f3031323334353637383961626364656600000000000000000000000000000000600f861660108110610e6557610e64611bca565b5b1a60f81b828281518110610e7c57610e7b611bca565b5b60200101907effffffffffffffffffffffffffffffffffffffffffffffffffffffffffffff1916908160001a905350600485901c945080610ebc90611bf9565b9050610e26565b5060008414610f07576040517f08c379a0000000000000000000000000000000000000000000000000000000008152600401610efe90611c6e565b60405180910390fd5b8091505092915050565b6000604051905090565b600080fd5b600080fd5b60007fffffffff0000000000000000000000000000000000000000000000000000000082169050919050565b610f5a81610f25565b8114610f6557600080fd5b50565b600081359050610f7781610f51565b92915050565b600060208284031215610f9357610f92610f1b565b5b6000610fa184828501610f68565b91505092915050565b60008115159050919050565b610fbf81610faa565b82525050565b6000602082019050610fda6000830184610fb6565b92915050565b6000819050919050565b610ff381610fe0565b82525050565b600060208201905061100e6000830184610fea565b92915050565b61101d81610fe0565b811461102857600080fd5b50565b60008135905061103a81611014565b92915050565b60006020828403121561105657611055610f1b565b5b60006110648482850161102b565b91505092915050565b600073ffffffffffffffffffffffffffffffffffffffff82169050919050565b60006110988261106d565b9050919050565b6110a88161108d565b81146110b357600080fd5b50565b6000813590506110c58161109f565b92915050565b600080604083850312156110e2576110e1610f1b565b5b60006110f08582860161102b565b9250506020611101858286016110b6565b9150509250929050565b600080fd5b600080fd5b6000601f19601f8301169050919050565b7f4e487b7100000000000000000000000000000000000000000000000000000000600052604160045260246000fd5b61115e82611115565b810181811067ffffffffffffffff8211171561117d5761117c611126565b5b80604052505050565b6000611190610f11565b905061119c8282611155565b919050565b600067ffffffffffffffff8211156111bc576111bb611126565b5b6111c582611115565b9050602081019050919050565b82818337600083830152505050565b60006111f46111ef846111a1565b611186565b9050828152602081018484840111156112105761120f611110565b5b61121b8482856111d2565b509392505050565b600082601f8301126112385761123761110b565b5b81356112488482602086016111e1565b91505092915050565b6000819050919050565b61126481611251565b811461126f57600080fd5b50565b6000813590506112818161125b565b92915050565b6000806040838503121561129e5761129d610f1b565b5b600083013567ffffffffffffffff8111156112bc576112bb610f20565b5b6112c885828601611223565b92505060206112d985828601611272565b9150509250929050565b6112ec81611251565b82525050565b600060208201905061130760008301846112e3565b92915050565b60006020828403121561132357611322610f1b565b5b600061133184828501611272565b91505092915050565b6000602082840312156113505761134f610f1b565b5b600061135e848285016110b6565b91505092915050565b600081519050919050565b600082825260208201905092915050565b6000819050602082019050919050565b61139c81611251565b82525050565b60006113ae8383611393565b60208301905092915050565b6000602082019050919050565b60006113d282611367565b6113dc8185611372565b93506113e783611383565b8060005b838110156114185781516113ff88826113a2565b975061140a836113ba565b9250506001810190506113eb565b5085935050505092915050565b6000602082019050818103600083015261143f81846113c7565b905092915050565b6114508161108d565b82525050565b600081519050919050565b600082825260208201905092915050565b60005b83811015611490578082015181840152602081019050611475565b60008484015250505050565b60006114a782611456565b6114b18185611461565b93506114c1818560208601611472565b6114ca81611115565b840191505092915050565b600060c0820190506114ea60008301896112e3565b6114f76020830188611447565b8181036040830152611509818761149c565b905061151860608301866112e3565b6115256080830185610fb6565b61153260a08301846112e3565b979650505050505050565b6000806040838503121561155457611553610f1b565b5b6000611562858286016110b6565b925050602061157385828601611272565b9150509250929050565b7f416363657373436f6e74726f6c3a2063616e206f6e6c792072656e6f756e636560008201527f20726f6c657320666f722073656c660000000000000000000000000000000000602082015250565b60006115d9602f83611461565b91506115e48261157d565b604082019050919050565b60006020820190508181036000830152611608816115cc565b9050919050565b7f4e487b7100000000000000000000000000000000000000000000000000000000600052601160045260246000fd5b600061164982611251565b915061165483611251565b925082820190508082111561166c5761166b61160f565b5b92915050565b7f4e487b7100000000000000000000000000000000000000000000000000000000600052602260045260246000fd5b600060028204905060018216806116b957607f821691505b6020821081036116cc576116cb611672565b5b50919050565b60008190508160005260206000209050919050565b60006020601f8301049050919050565b600082821b905092915050565b6000600883026117347fffffffffffffffffffffffffffffffffffffffffffffffffffffffffffffffff826116f7565b61173e86836116f7565b95508019841693508086168417925050509392505050565b6000819050919050565b600061177b61177661177184611251565b611756565b611251565b9050919050565b6000819050919050565b61179583611760565b6117a96117a182611782565b848454611704565b825550505050565b600090565b6117be6117b1565b6117c981848461178c565b505050565b5b818110156117ed576117e26000826117b6565b6001810190506117cf565b5050565b601f82111561183257611803816116d2565b61180c846116e7565b8101602085101561181b578190505b61182f611827856116e7565b8301826117ce565b50505b505050565b600082821c905092915050565b600061185560001984600802611837565b1980831691505092915050565b600061186e8383611844565b9150826002028217905092915050565b61188782611456565b67ffffffffffffffff8111156118a05761189f611126565b5b6118aa82546116a1565b6118b58282856117f1565b600060209050601f8311600181146118e857600084156118d6578287015190505b6118e08582611862565b865550611948565b601f1984166118f6866116d2565b60005b8281101561191e578489015182556001820191506020850194506020810190506118f9565b8683101561193b5784890151611937601f891682611844565b8355505b6001600288020188555050505b505050505050565b6000604082019050818103600083015261196a818561149c565b905061197960208301846112e3565b9392505050565b7f436c61696d20646f6573206e6f74206578697374000000000000000000000000600082015250565b60006119b6601483611461565b91506119c182611980565b602082019050919050565b600060208201905081810360008301526119e5816119a9565b9050919050565b7f416c726561647920617070726f76656400000000000000000000000000000000600082015250565b6000611a22601083611461565b9150611a2d826119ec565b602082019050919050565b60006020820190508181036000830152611a5181611a15565b9050919050565b600081905092915050565b7f416363657373436f6e74726f6c3a206163636f756e7420000000000000000000600082015250565b6000611a99601783611a58565b9150611aa482611a63565b601782019050919050565b6000611aba82611456565b611ac48185611a58565b9350611ad4818560208601611472565b80840191505092915050565b7f206973206d697373696e6720726f6c6520000000000000000000000000000000600082015250565b6000611b16601183611a58565b9150611b2182611ae0565b601182019050919050565b6000611b3782611a8c565b9150611b438285611aaf565b9150611b4e82611b09565b9150611b5a8284611aaf565b91508190509392505050565b60006020820190508181036000830152611b80818461149c565b905092915050565b6000611b9382611251565b9150611b9e83611251565b9250828202611bac81611251565b91508282048414831517611bc357611bc261160f565b5b5092915050565b7f4e487b7100000000000000000000000000000000000000000000000000000000600052603260045260246000fd5b6000611c0482611251565b915060008203611c1757611c1661160f565b5b600182039050919050565b7f537472696e67733a20686578206c656e67746820696e73756666696369656e74600082015250565b6000611c58602083611461565b9150611c6382611c22565b602082019050919050565b60006020820190508181036000830152611c8781611c4b565b905091905056fea2646970667358221220592afec31e96af512018638d8cd62bbece06ba57633973d58abf3c5a7346741864736f6c63430008110033",
  "linkReferences": {},
  "deployedLinkReferences": {}
}